S012000050452050726F6A656374312E73313925
S11300000000002099040000E5050000E907000055
S1130010E5050000E5050000E5050000E505000034
S1130020E5050000E5050000E5050000E505000024
S1130030E5050000E5050000E5050000E505000014
S1130040E5050000E5050000E5050000E505000004
S1130050E5050000E5050000E5050000E5050000F4
S1130060E5050000E5050000E5050000E5050000E4
S1130070E5050000E5050000E5050000E5050000D4
S1130080E5050000E5050000E5050000E5050000C4
S1130090E5050000E5050000E5050000E5050000B4
S11300A0E5050000E5050000E5050000E5050000A4
S11300B0E5050000E5050000E5050000E505000094
S11300C0E5050000E5050000E5050000E505000084
S11300D0E5050000E5050000E5050000E505000074
S11300E0E5050000E5050000E5050000E505000064
S11300F0E5050000E5050000E5050000E505000054
S1130100E5050000E5050000E5050000E505000043
S1130110E5050000E5050000E5050000E505000033
S1130120E5050000E5050000E5050000E505000023
S1130130E5050000E5050000E5050000E505000013
S1130140E5050000E5050000E5050000E505000003
S1130150E5050000E5050000E5050000E5050000F3
S1130160E5050000E5050000E5050000E5050000E3
S1130170E5050000E5050000E5050000E5050000D3
S1130180E5050000E5050000E5050000E5050000C3
S1130190E5050000E5050000E5050000E5050000B3
S11301A0E5050000E5050000E5050000E5050000A3
S11301B0E5050000E5050000E5050000E505000093
S11301C0E5050000E5050000E5050000E505000083
S11301D0E5050000E5050000E5050000E505000073
S1130400FFFFFFFFFFFFFFFFFFFFFFFF7EFFFFFF79
S1130410704700BF88420ED06AB141EA000313F06E
S1130420030F09D1032A07D951F8043B40F8043BD0
S1130430043A002AF1D17047DB0707D4012A05D911
S113044031F8023B20F8023B023AE5E711F8013BA0
S113045000F8013B013ADFE738B50B4B03B938BD6F
S11304601D4603F1080406E0AA68002AF7D0FFF746
S1130470D1FF0C350C3454F8081C54F8040C09B999
S11304800028F1D0AA68F2E7FC080000704700BF1A
S1130490704700BF704700BF10B5FFF7F7FF1A4C55
S11304A000F0AAF82046002800F00880854681B0B4
S11304B04FF000006FEA0000009001B0134A144BA3
S11304C0D21A08D1FFF7C8FFFFF7E4FF0020114953
S11304D000F0F2F9FEE7002113F0030007D1032A2C
S11304E005D943F8040B043A002AF5D1EAE713F0DE
S11304F0010005D1012A03D923F8020B023AF3E7DC
S113050003F8011B013AEFE7000000207000FF1F11
S11305100000FF1F0000FF1F08B5FFF7BDFF00BF6D
S11305200D4B0E4A0E4910B4106058690D4C40F43E
S113053000605861186840F400601860CB6A23F0CA
S1130540807323F4E06343F48073CB62104622602B
S11305505DF8044B704700BF00F00F402800FF1FF8
S1130560009004406800FF1F054B5A6919B922F432
S113057000625A61704742F400625A61704700BFDA
S113058000F00F40054B5A69120554BF18691868EA
S113059000F40060003018BF0120704700F00F40E5
S11305A0034B4FF4006209B99A6070475A60704770
S11305B000F00F40024B4FF400629A60704700BF96
S11305C000F00F40024B4FF400625A60704700BFC6
S11305D000F00F40024B4FF40062DA60704700BF36
S11305E000F00F40684620F007018D4601B4FFBEBD
S11305F05DF8040B854670474FF0E020F0B4374CAB
S1130600C0F8084D364B374A3749384F41F2440455
S11306104CF220554DF628164FF4E970D581D68159
S113062041F23805108019515A5931483149324E36
S113063042F400725A511F5141F2480224279C5837
S113064024F00F049C5041F2040280259C5824F4A9
S113065080349C501C6824F400241C60846C24F0B6
S1130660807424F4E0648464C46C24F0807424F4FE
S1130670E064C4644F703570985820F001009850BD
S1130680AA230B70CA78072002F01F020023CA7045
S113069008710A464B7193799807FCD5154A9379EA
S11306A0D906FCD413498B79124A03F00C03082BA6
S11306B0F9D140235371937903F00C03082BFAD139
S11306C00C498B790B4A5B06FBD52A23137093796B
S11306D003F00C030C2BFAD1F0BC704700000000AF
S11306E000700440002005400000330100001301A5
S11306F000900440004006400050064080F31188FA
S1130700704700BF1A4A1B481B49F8B514691B4BB4
S11307101B4E1C4D41F2140724F4E06E0024C2F871
S113072010E0C45100F58252106840F004001060DB
S11307300A6822F0784222F001020A601A7802F074
S11307408C0242F050021A705A7802F09C0242F075
S113075040025A709A7802F0EC029A702046B47003
S113076085F81443FFF7DCFE84F31188F8BD00BF5D
S1130770009004400070044000D0004000D00740C6
S113078000E0074000E100E0154B164AC169D0F8CB
S113079008C02DE9F003D0F80090D0F80480C768B1
S11307A0066945698469C3F80090C3F80480C3F8F6
S11307B008C0DF601E615D619C61D96111681962C6
S11307C051685962916899625169D962D168196313
S11307D0103212685A6300BEBDE8F003704700BFD0
S11307E03000FF1F28ED00E004207146084200F0AD
S11307F00480EFF3098000F002B8EFF30880416948
S1130800FFF7C2BF22B1024400F8011B9042FBD1A2
S1130810704700BF024BC31A58425841704700BF8B
S113082000F00F40704700BF00BF00BF00BF70471B
S1130830002000BF00BF00BF00BF00BF00F10100E7
S113084009287FF6F6AF00BF704700BF642810B5D3
S113085004460BD9643CA4B2FFF7EAFF642CF9D830
S11308600A2C05D9FFF7E0FF0A3CA4B20A2CF9D8F8
S113087010BD00BF38B54EF66025A842044608D91D
S1130880A4F56A44603C4EF66020FFF7DFFFAC42FB
S1130890F6D8A0B2BDE83840FFF7D8BF10B504467B
S11308A030B1013C0348A4B2FFF7E4FF002CF8D1B7
S11308B010BD00BF0077010008B5FFF723FF044C0B
S11308C06420FFF7EBFF2068FFF784FEF8E700BF22
S11308D06800FF1F00D8B805006CDC02006CDC0265
S11308E000366E01000000000000000000800000DF
S10F08F00048E80100000000093D000081
S11308FCFC0800000000FF1F00000000FC080000C2
S113090C00000020000000000000000000000000B7
S107091C00000000D3
S90304995F
